{
  "contractName": "ForumAccount",
  "abi": [
    {
      "inputs": [
        {
          "name": "FRTAddress",
          "type": "address"
        }
      ],
      "payable": false,
      "stateMutability": "nonpayable",
      "type": "constructor"
    },
    {
      "constant": false,
      "inputs": [
        {
          "name": "_username",
          "type": "string"
        }
      ],
      "name": "register",
      "outputs": [],
      "payable": false,
      "stateMutability": "nonpayable",
      "type": "function"
    },
    {
      "constant": false,
      "inputs": [
        {
          "name": "_accountAddress",
          "type": "address"
        },
        {
          "name": "points",
          "type": "uint256"
        }
      ],
      "name": "addReputationPoints",
      "outputs": [],
      "payable": false,
      "stateMutability": "nonpayable",
      "type": "function"
    },
    {
      "constant": true,
      "inputs": [
        {
          "name": "_accountAddress",
          "type": "address"
        }
      ],
      "name": "getReputationPoints",
      "outputs": [
        {
          "name": "",
          "type": "uint256"
        }
      ],
      "payable": false,
      "stateMutability": "view",
      "type": "function"
    },
    {
      "constant": false,
      "inputs": [
        {
          "name": "_amount",
          "type": "uint256"
        }
      ],
      "name": "exchangeReputationPoints",
      "outputs": [],
      "payable": false,
      "stateMutability": "nonpayable",
      "type": "function"
    },
    {
      "constant": true,
      "inputs": [
        {
          "name": "_accountAddress",
          "type": "address"
        }
      ],
      "name": "getUsername",
      "outputs": [
        {
          "name": "",
          "type": "string"
        }
      ],
      "payable": false,
      "stateMutability": "view",
      "type": "function"
    }
  ],
  "bytecode": "0x608060405234801561001057600080fd5b50604051602080610b828339810180604052602081101561003057600080fd5b8101908080519060200190929190505050806000806101000a81548173ffffffffffffffffffffffffffffffffffffffff021916908373ffffffffffffffffffffffffffffffffffffffff16021790555050610af1806100916000396000f3fe60806040526004361061006d576000357c0100000000000000000000000000000000000000000000000000000000900463ffffffff1680633cb82d4f146100725780636b5044b0146100d75780637d0cd7f514610112578063ce43c0321461016d578063f2c298be14610237575b600080fd5b34801561007e57600080fd5b506100c16004803603602081101561009557600080fd5b81019080803573ffffffffffffffffffffffffffffffffffffffff1690602001909291905050506102ff565b6040518082815260200191505060405180910390f35b3480156100e357600080fd5b50610110600480360360208110156100fa57600080fd5b810190808035906020019092919050505061034b565b005b34801561011e57600080fd5b5061016b6004803603604081101561013557600080fd5b81019080803573ffffffffffffffffffffffffffffffffffffffff16906020019092919080359060200190929190505050610538565b005b34801561017957600080fd5b506101bc6004803603602081101561019057600080fd5b81019080803573ffffffffffffffffffffffffffffffffffffffff16906020019092919050505061058c565b6040518080602001828103825283818151815260200191508051906020019080838360005b838110156101fc5780820151818401526020810190506101e1565b50505050905090810190601f1680156102295780820380516001836020036101000a031916815260200191505b509250505060405180910390f35b34801561024357600080fd5b506102fd6004803603602081101561025a57600080fd5b810190808035906020019064010000000081111561027757600080fd5b82018360208201111561028957600080fd5b803590602001918460018302840111640100000000831117156102ab57600080fd5b91908080601f016020809104026020016040519081016040528093929190818152602001838380828437600081840152601f19601f820116905080830192505050505050509192919290505050610777565b005b6000600160008373ffffffffffffffffffffffffffffffffffffffff1673ffffffffffffffffffffffffffffffffffffffff168152602001908152602001600020600201549050919050565b600060648281151561035957fe5b061415156103f5576040517f08c379a00000000000000000000000000000000000000000000000000000000081526004018080602001828103825260248152602001807f74686520616d6f756e74206d7573742062652061206d756c7469706c65206f6681526020017f203130300000000000000000000000000000000000000000000000000000000081525060400191505060405180910390fd5b6000809054906101000a900473ffffffffffffffffffffffffffffffffffffffff1673ffffffffffffffffffffffffffffffffffffffff166323b872dd303360648581151561044057fe5b046040518463ffffffff167c0100000000000000000000000000000000000000000000000000000000028152600401808473ffffffffffffffffffffffffffffffffffffffff1673ffffffffffffffffffffffffffffffffffffffff1681526020018373ffffffffffffffffffffffffffffffffffffffff1673ffffffffffffffffffffffffffffffffffffffff1681526020018281526020019350505050602060405180830381600087803b1580156104f957600080fd5b505af115801561050d573d6000803e3d6000fd5b505050506040513d602081101561052357600080fd5b81019080805190602001909291905050505050565b80600160008473ffffffffffffffffffffffffffffffffffffffff1673ffffffffffffffffffffffffffffffffffffffff168152602001908152602001600020600201600082825401925050819055505050565b6060600073ffffffffffffffffffffffffffffffffffffffff16600160008473ffffffffffffffffffffffffffffffffffffffff1673ffffffffffffffffffffffffffffffffffffffff16815260200190815260200160002060000160009054906101000a900473ffffffffffffffffffffffffffffffffffffffff1673ffffffffffffffffffffffffffffffffffffffff1614151515610695576040517f08c379a00000000000000000000000000000000000000000000000000000000081526004018080602001828103825260168152602001807f4163636f756e74206e6f7420726567697374657265640000000000000000000081525060200191505060405180910390fd5b600160008373ffffffffffffffffffffffffffffffffffffffff1673ffffffffffffffffffffffffffffffffffffffff1681526020019081526020016000206001018054600181600116156101000203166002900480601f01602080910402602001604051908101604052809291908181526020018280546001816001161561010002031660029004801561076b5780601f106107405761010080835404028352916020019161076b565b820191906000526020600020905b81548152906001019060200180831161074e57829003601f168201915b50505050509050919050565b600081511115156107f0576040517f08c379a000000000000000000000000000000000000000000000000000000000815260040180806020018281038252601a8152602001807f557365726e616d65206d757374206e6f7420626520656d70747900000000000081525060200191505060405180910390fd5b600073ffffffffffffffffffffffffffffffffffffffff16600160003373ffffffffffffffffffffffffffffffffffffffff1673ffffffffffffffffffffffffffffffffffffffff16815260200190815260200160002060000160009054906101000a900473ffffffffffffffffffffffffffffffffffffffff1673ffffffffffffffffffffffffffffffffffffffff161415156108f6576040517f08c379a000000000000000000000000000000000000000000000000000000000815260040180806020018281038252601a8152602001807f4163636f756e7420616c7265616479207265676973746572656400000000000081525060200191505060405180910390fd5b6108fe6109e8565b6060604051908101604052803373ffffffffffffffffffffffffffffffffffffffff1681526020018381526020016000815250905080600160003373ffffffffffffffffffffffffffffffffffffffff1673ffffffffffffffffffffffffffffffffffffffff16815260200190815260200160002060008201518160000160006101000a81548173ffffffffffffffffffffffffffffffffffffffff021916908373ffffffffffffffffffffffffffffffffffffffff16021790555060208201518160010190805190602001906109d6929190610a20565b50604082015181600201559050505050565b606060405190810160405280600073ffffffffffffffffffffffffffffffffffffffff16815260200160608152602001600081525090565b828054600181600116156101000203166002900490600052602060002090601f016020900481019282601f10610a6157805160ff1916838001178555610a8f565b82800160010185558215610a8f579182015b82811115610a8e578251825591602001919060010190610a73565b5b509050610a9c9190610aa0565b5090565b610ac291905b80821115610abe576000816000905550600101610aa6565b5090565b9056fea165627a7a72305820a50790211152e610719de8046eb5c18b79098f73891ad61fee79c7b31d51e3790029",
  "source": "pragma solidity ^0.5.0;\r\nimport \"./ForumToken.sol\";\r\n\r\ncontract ForumAccount {\r\n    ForumToken FRTContract;\r\n\r\n    struct User {\r\n        address accountAddress;\r\n        string username;\r\n        uint256 reputationPoints;\r\n    }\r\n    \r\n    mapping (address => User) private users;\r\n    \r\n    constructor(ForumToken FRTAddress) public {\r\n        FRTContract = FRTAddress;\r\n    }\r\n\r\n    function register(string memory _username) public {\r\n        require(bytes(_username).length > 0, \"Username must not be empty\");\r\n        require(users[msg.sender].accountAddress == address(0), \"Account already registered\");\r\n        \r\n        User memory newUser = User(msg.sender, _username, 0);\r\n        users[msg.sender] = newUser;\r\n    }\r\n    \r\n    function addReputationPoints(address _accountAddress, uint256 points) public {\r\n        users[_accountAddress].reputationPoints += points;\r\n    }\r\n\r\n    function getReputationPoints(address _accountAddress) public view returns (uint256){\r\n        return users[_accountAddress].reputationPoints;\r\n    }\r\n\r\n    function exchangeReputationPoints(uint256 _amount) public {\r\n        require(_amount % 100 == 0, \"the amount must be a multiple of 100\");\r\n        FRTContract.transferFrom(address(this), msg.sender, _amount/100);\r\n    }\r\n\r\n    function getUsername(address _accountAddress) public view returns (string memory) {\r\n        require(users[_accountAddress].accountAddress != address(0), \"Account not registered\");\r\n        return users[_accountAddress].username;\r\n    }\r\n}\r\n",
  "sourcePath": "D:\\FT5004 project\\contracts\\ForumAccount.sol",
  "compiler": {
    "name": "solc",
    "version": "0.5.0+commit.1d4f565a.Emscripten.clang"
  },
  "schemaVersion": "3.4.13",
  "updatedAt": "2023-04-18T07:18:21.365Z",
  "networkType": "ethereum",
  "devdoc": {
    "methods": {}
  },
  "userdoc": {
    "methods": {}
  }
}