{
  "contractName": "Forum",
  "abi": [
    {
      "constant": true,
      "inputs": [
        {
          "name": "",
          "type": "uint256"
        }
      ],
      "name": "discussions",
      "outputs": [
        {
          "name": "discussionId",
          "type": "uint256"
        },
        {
          "name": "creator",
          "type": "address"
        },
        {
          "name": "title",
          "type": "string"
        },
        {
          "name": "content",
          "type": "string"
        },
        {
          "name": "reward",
          "type": "uint256"
        },
        {
          "name": "timestamp",
          "type": "uint256"
        },
        {
          "name": "completed",
          "type": "bool"
        }
      ],
      "payable": false,
      "stateMutability": "view",
      "type": "function"
    },
    {
      "constant": true,
      "inputs": [
        {
          "name": "",
          "type": "uint256"
        },
        {
          "name": "",
          "type": "uint256"
        }
      ],
      "name": "answers",
      "outputs": [
        {
          "name": "answerId",
          "type": "uint256"
        },
        {
          "name": "content",
          "type": "string"
        },
        {
          "name": "answerer",
          "type": "address"
        },
        {
          "name": "likes",
          "type": "uint256"
        },
        {
          "name": "dislikes",
          "type": "uint256"
        },
        {
          "name": "timestamp",
          "type": "uint256"
        }
      ],
      "payable": false,
      "stateMutability": "view",
      "type": "function"
    },
    {
      "constant": true,
      "inputs": [],
      "name": "discussionCount",
      "outputs": [
        {
          "name": "",
          "type": "uint256"
        }
      ],
      "payable": false,
      "stateMutability": "view",
      "type": "function"
    },
    {
      "inputs": [
        {
          "name": "FRTAddress",
          "type": "address"
        },
        {
          "name": "FRAAddress",
          "type": "address"
        }
      ],
      "payable": false,
      "stateMutability": "nonpayable",
      "type": "constructor"
    },
    {
      "anonymous": false,
      "inputs": [
        {
          "indexed": false,
          "name": "creator",
          "type": "address"
        },
        {
          "indexed": false,
          "name": "discussionId",
          "type": "uint256"
        },
        {
          "indexed": false,
          "name": "title",
          "type": "string"
        },
        {
          "indexed": false,
          "name": "reward",
          "type": "uint256"
        },
        {
          "indexed": false,
          "name": "completed",
          "type": "bool"
        }
      ],
      "name": "DiscussionCreated",
      "type": "event"
    },
    {
      "anonymous": false,
      "inputs": [
        {
          "indexed": false,
          "name": "id",
          "type": "uint256"
        },
        {
          "indexed": false,
          "name": "completed",
          "type": "bool"
        }
      ],
      "name": "DiscussionCompleted",
      "type": "event"
    },
    {
      "anonymous": false,
      "inputs": [
        {
          "indexed": false,
          "name": "answerId",
          "type": "uint256"
        },
        {
          "indexed": false,
          "name": "content",
          "type": "string"
        },
        {
          "indexed": false,
          "name": "answerer",
          "type": "address"
        }
      ],
      "name": "AnswerCreated",
      "type": "event"
    },
    {
      "constant": false,
      "inputs": [
        {
          "name": "_title",
          "type": "string"
        },
        {
          "name": "_content",
          "type": "string"
        },
        {
          "name": "_reward",
          "type": "uint256"
        }
      ],
      "name": "createDiscussion",
      "outputs": [],
      "payable": false,
      "stateMutability": "nonpayable",
      "type": "function"
    },
    {
      "constant": false,
      "inputs": [
        {
          "name": "_discussionId",
          "type": "uint256"
        },
        {
          "name": "_answerId",
          "type": "uint256"
        }
      ],
      "name": "discussionCompleted",
      "outputs": [],
      "payable": false,
      "stateMutability": "nonpayable",
      "type": "function"
    },
    {
      "constant": false,
      "inputs": [
        {
          "name": "_discussionId",
          "type": "uint256"
        },
        {
          "name": "_answer",
          "type": "string"
        }
      ],
      "name": "postAnswer",
      "outputs": [],
      "payable": false,
      "stateMutability": "nonpayable",
      "type": "function"
    },
    {
      "constant": true,
      "inputs": [
        {
          "name": "_discussionId",
          "type": "uint256"
        },
        {
          "name": "_answerId",
          "type": "uint256"
        }
      ],
      "name": "getAnswerer",
      "outputs": [
        {
          "name": "",
          "type": "address"
        }
      ],
      "payable": false,
      "stateMutability": "view",
      "type": "function"
    },
    {
      "constant": true,
      "inputs": [
        {
          "name": "_discussionId",
          "type": "uint256"
        },
        {
          "name": "_answerId",
          "type": "uint256"
        }
      ],
      "name": "checkAnswer",
      "outputs": [
        {
          "name": "",
          "type": "string"
        },
        {
          "name": "",
          "type": "address"
        },
        {
          "name": "",
          "type": "uint256"
        }
      ],
      "payable": false,
      "stateMutability": "view",
      "type": "function"
    },
    {
      "constant": false,
      "inputs": [
        {
          "name": "_discussionId",
          "type": "uint256"
        },
        {
          "name": "_answerId",
          "type": "uint256"
        }
      ],
      "name": "likeAnswer",
      "outputs": [],
      "payable": false,
      "stateMutability": "nonpayable",
      "type": "function"
    },
    {
      "constant": false,
      "inputs": [
        {
          "name": "_discussionId",
          "type": "uint256"
        },
        {
          "name": "_answerId",
          "type": "uint256"
        }
      ],
      "name": "dislikeAnswer",
      "outputs": [],
      "payable": false,
      "stateMutability": "nonpayable",
      "type": "function"
    }
  ],
  "bytecode": "0x60806040526000805534801561001457600080fd5b50604051604080611c698339810180604052604081101561003457600080fd5b81019080805190602001909291908051906020019092919050505081600160006101000a81548173ffffffffffffffffffffffffffffffffffffffff021916908373ffffffffffffffffffffffffffffffffffffffff16021790555080600260006101000a81548173ffffffffffffffffffffffffffffffffffffffff021916908373ffffffffffffffffffffffffffffffffffffffff1602179055505050611b87806100e26000396000f3fe6080604052600436106100a4576000357c0100000000000000000000000000000000000000000000000000000000900463ffffffff168063114b6a48146100a957806315e82ecb1461021c5780632401519c14610385578063254c073f146104925780632b2e998b146104d7578063652da21a1461051c578063890670ae146105a1578063c629999d146105e6578063c921d66c14610611578063dbe0957a146106e3575b600080fd5b3480156100b557600080fd5b506100e2600480360360208110156100cc57600080fd5b81019080803590602001909291905050506107db565b604051808881526020018773ffffffffffffffffffffffffffffffffffffffff1673ffffffffffffffffffffffffffffffffffffffff168152602001806020018060200186815260200185815260200184151515158152602001838103835288818151815260200191508051906020019080838360005b83811015610174578082015181840152602081019050610159565b50505050905090810190601f1680156101a15780820380516001836020036101000a031916815260200191505b50838103825287818151815260200191508051906020019080838360005b838110156101da5780820151818401526020810190506101bf565b50505050905090810190601f1680156102075780820380516001836020036101000a031916815260200191505b50995050505050505050505060405180910390f35b34801561022857600080fd5b506103836004803603606081101561023f57600080fd5b810190808035906020019064010000000081111561025c57600080fd5b82018360208201111561026e57600080fd5b8035906020019184600183028401116401000000008311171561029057600080fd5b91908080601f016020809104026020016040519081016040528093929190818152602001838380828437600081840152601f19601f820116905080830192505050505050509192919290803590602001906401000000008111156102f357600080fd5b82018360208201111561030557600080fd5b8035906020019184600183028401116401000000008311171561032757600080fd5b91908080601f016020809104026020016040519081016040528093929190818152602001838380828437600081840152601f19601f8201169050808301925050505050505091929192908035906020019092919050505061097a565b005b34801561039157600080fd5b506103c8600480360360408110156103a857600080fd5b810190808035906020019092919080359060200190929190505050610ce5565b60405180878152602001806020018673ffffffffffffffffffffffffffffffffffffffff1673ffffffffffffffffffffffffffffffffffffffff168152602001858152602001848152602001838152602001828103825287818151815260200191508051906020019080838360005b83811015610452578082015181840152602081019050610437565b50505050905090810190601f16801561047f5780820380516001836020036101000a031916815260200191505b5097505050505050505060405180910390f35b34801561049e57600080fd5b506104d5600480360360408110156104b557600080fd5b810190808035906020019092919080359060200190929190505050610df5565b005b3480156104e357600080fd5b5061051a600480360360408110156104fa57600080fd5b810190808035906020019092919080359060200190929190505050610e39565b005b34801561052857600080fd5b5061055f6004803603604081101561053f57600080fd5b81019080803590602001909291908035906020019092919050505061101d565b604051808273ffffffffffffffffffffffffffffffffffffffff1673ffffffffffffffffffffffffffffffffffffffff16815260200191505060405180910390f35b3480156105ad57600080fd5b506105e4600480360360408110156105c457600080fd5b810190808035906020019092919080359060200190929190505050611079565b005b3480156105f257600080fd5b506105fb611347565b6040518082815260200191505060405180910390f35b34801561061d57600080fd5b506106e16004803603604081101561063457600080fd5b81019080803590602001909291908035906020019064010000000081111561065b57600080fd5b82018360208201111561066d57600080fd5b8035906020019184600183028401116401000000008311171561068f57600080fd5b91908080601f016020809104026020016040519081016040528093929190818152602001838380828437600081840152601f19601f82011690508083019250505050505050919291929050505061134d565b005b3480156106ef57600080fd5b506107266004803603604081101561070657600080fd5b81019080803590602001909291908035906020019092919050505061188a565b60405180806020018473ffffffffffffffffffffffffffffffffffffffff1673ffffffffffffffffffffffffffffffffffffffff168152602001838152602001828103825285818151815260200191508051906020019080838360005b8381101561079e578082015181840152602081019050610783565b50505050905090810190601f1680156107cb5780820380516001836020036101000a031916815260200191505b5094505050505060405180910390f35b60036020528060005260406000206000915090508060000154908060010160009054906101000a900473ffffffffffffffffffffffffffffffffffffffff1690806002018054600181600116156101000203166002900480601f0160208091040260200160405190810160405280929190818152602001828054600181600116156101000203166002900480156108b35780601f10610888576101008083540402835291602001916108b3565b820191906000526020600020905b81548152906001019060200180831161089657829003601f168201915b505050505090806003018054600181600116156101000203166002900480601f0160208091040260200160405190810160405280929190818152602001828054600181600116156101000203166002900480156109515780601f1061092657610100808354040283529160200191610951565b820191906000526020600020905b81548152906001019060200180831161093457829003601f168201915b5050505050908060040154908060050154908060060160009054906101000a900460ff16905087565b610982611a13565b60e06040519081016040528060005481526020013373ffffffffffffffffffffffffffffffffffffffff1681526020018581526020018481526020018381526020014281526020016000151581525090508060036000805481526020019081526020016000206000820151816000015560208201518160010160006101000a81548173ffffffffffffffffffffffffffffffffffffffff021916908373ffffffffffffffffffffffffffffffffffffffff1602179055506040820151816002019080519060200190610a55929190611a69565b506060820151816003019080519060200190610a72929190611a69565b506080820151816004015560a0820151816005015560c08201518160060160006101000a81548160ff021916908315150217905550905050600160009054906101000a900473ffffffffffffffffffffffffffffffffffffffff1673ffffffffffffffffffffffffffffffffffffffff166323b872dd3330856040518463ffffffff167c0100000000000000000000000000000000000000000000000000000000028152600401808473ffffffffffffffffffffffffffffffffffffffff1673ffffffffffffffffffffffffffffffffffffffff1681526020018373ffffffffffffffffffffffffffffffffffffffff1673ffffffffffffffffffffffffffffffffffffffff1681526020018281526020019350505050602060405180830381600087803b158015610ba357600080fd5b505af1158015610bb7573d6000803e3d6000fd5b505050506040513d6020811015610bcd57600080fd5b8101908080519060200190929190505050507f4baaf14f9007e33cc6397c8f27e0fa6ccd7ca20ac2c4a008606cdf9761507a2b3360005486856000604051808673ffffffffffffffffffffffffffffffffffffffff1673ffffffffffffffffffffffffffffffffffffffff1681526020018581526020018060200184815260200183151515158152602001828103825285818151815260200191508051906020019080838360005b83811015610c90578082015181840152602081019050610c75565b50505050905090810190601f168015610cbd5780820380516001836020036101000a031916815260200191505b50965050505050505060405180910390a1600080815480929190600101919050555050505050565b600460205281600052604060002081815481101515610d0057fe5b906000526020600020906006020160009150915050806000015490806001018054600181600116156101000203166002900480601f016020809104026020016040519081016040528092919081815260200182805460018160011615610100020316600290048015610db35780601f10610d8857610100808354040283529160200191610db3565b820191906000526020600020905b815481529060010190602001808311610d9657829003601f168201915b5050505050908060020160009054906101000a900473ffffffffffffffffffffffffffffffffffffffff16908060030154908060040154908060050154905086565b60016004600084815260200190815260200160002082815481101515610e1757fe5b9060005260206000209060060201600401600082825401925050819055505050565b60016004600084815260200190815260200160002082815481101515610e5b57fe5b9060005260206000209060060201600301600082825401925050819055506004600083815260200190815260200160002081815481101515610e9957fe5b9060005260206000209060060201600401546004600084815260200190815260200160002082815481101515610ecb57fe5b90600052602060002090600602016003015411156110195760006004600084815260200190815260200160002082815481101515610f0557fe5b906000526020600020906006020160020160009054906101000a900473ffffffffffffffffffffffffffffffffffffffff169050600260009054906101000a900473ffffffffffffffffffffffffffffffffffffffff1673ffffffffffffffffffffffffffffffffffffffff16637d0cd7f58260016040518363ffffffff167c0100000000000000000000000000000000000000000000000000000000028152600401808373ffffffffffffffffffffffffffffffffffffffff1673ffffffffffffffffffffffffffffffffffffffff16815260200182815260200192505050600060405180830381600087803b158015610fff57600080fd5b505af1158015611013573d6000803e3d6000fd5b50505050505b5050565b6000600460008481526020019081526020016000208281548110151561103f57fe5b906000526020600020906006020160020160009054906101000a900473ffffffffffffffffffffffffffffffffffffffff16905092915050565b813373ffffffffffffffffffffffffffffffffffffffff166003600083815260200190815260200160002060010160009054906101000a900473ffffffffffffffffffffffffffffffffffffffff1673ffffffffffffffffffffffffffffffffffffffff16141515611153576040517f08c379a00000000000000000000000000000000000000000000000000000000081526004018080602001828103825260188152602001807f4f6e6c7920706f737465722063616e20646f20746869732e000000000000000081525060200191505060405180910390fd5b600061115f848461101d565b9050600160009054906101000a900473ffffffffffffffffffffffffffffffffffffffff1673ffffffffffffffffffffffffffffffffffffffff166323b872dd308360036000898152602001908152602001600020600401546040518463ffffffff167c0100000000000000000000000000000000000000000000000000000000028152600401808473ffffffffffffffffffffffffffffffffffffffff1673ffffffffffffffffffffffffffffffffffffffff1681526020018373ffffffffffffffffffffffffffffffffffffffff1673ffffffffffffffffffffffffffffffffffffffff1681526020018281526020019350505050602060405180830381600087803b15801561127057600080fd5b505af1158015611284573d6000803e3d6000fd5b505050506040513d602081101561129a57600080fd5b81019080805190602001909291905050505060016003600086815260200190815260200160002060060160006101000a81548160ff0219169083151502179055507f4667015fc85ce340906f010e35635f91d29eaf2700ce52df8b6ce3148c18ce70846003600087815260200190815260200160002060060160009054906101000a900460ff1660405180838152602001821515151581526020019250505060405180910390a150505050565b60005481565b600015156003600084815260200190815260200160002060060160009054906101000a900460ff1615151415156113ec576040517f08c379a000000000000000000000000000000000000000000000000000000000815260040180806020018281038252601c8152602001807f7468652064697363757373696f6e20697320636f6d706c657465642e0000000081525060200191505060405180910390fd5b600060046000848152602001908152602001600020805490509050600115156003600085815260200190815260200160002060060160009054906101000a900460ff1615151415156114a6576040517f08c379a000000000000000000000000000000000000000000000000000000000815260040180806020018281038252600a8152602001807f627265616b20746573740000000000000000000000000000000000000000000081525060200191505060405180910390fd5b6114ae611ae9565b60c0604051908101604052808381526020018481526020013373ffffffffffffffffffffffffffffffffffffffff168152602001600081526020016000815260200142815250905080600460008681526020019081526020016000208381548110151561151757fe5b906000526020600020906006020160008201518160000155602082015181600101908051906020019061154b929190611a69565b5060408201518160020160006101000a81548173ffffffffffffffffffffffffffffffffffffffff021916908373ffffffffffffffffffffffffffffffffffffffff160217905550606082015181600301556080820151816004015560a082015181600501559050507f6796a1bde84f43d29cfbb992a27f9497318980a6a70fa80181987382193b746582843360405180848152602001806020018373ffffffffffffffffffffffffffffffffffffffff1673ffffffffffffffffffffffffffffffffffffffff168152602001828103825284818151815260200191508051906020019080838360005b83811015611650578082015181840152602081019050611635565b50505050905090810190601f16801561167d5780820380516001836020036101000a031916815260200191505b5094505050505060405180910390a1600260009054906101000a900473ffffffffffffffffffffffffffffffffffffffff1673ffffffffffffffffffffffffffffffffffffffff16637d0cd7f53360056040518363ffffffff167c0100000000000000000000000000000000000000000000000000000000028152600401808373ffffffffffffffffffffffffffffffffffffffff1673ffffffffffffffffffffffffffffffffffffffff16815260200182815260200192505050600060405180830381600087803b15801561175257600080fd5b505af1158015611766573d6000803e3d6000fd5b5050505060006003600086815260200190815260200160002060010160009054906101000a900473ffffffffffffffffffffffffffffffffffffffff169050600260009054906101000a900473ffffffffffffffffffffffffffffffffffffffff1673ffffffffffffffffffffffffffffffffffffffff16637d0cd7f58260026040518363ffffffff167c0100000000000000000000000000000000000000000000000000000000028152600401808373ffffffffffffffffffffffffffffffffffffffff1673ffffffffffffffffffffffffffffffffffffffff16815260200182815260200192505050600060405180830381600087803b15801561186b57600080fd5b505af115801561187f573d6000803e3d6000fd5b505050505050505050565b6060600080611897611ae9565b60046000878152602001908152602001600020858154811015156118b757fe5b906000526020600020906006020160c0604051908101604052908160008201548152602001600182018054600181600116156101000203166002900480601f0160208091040260200160405190810160405280929190818152602001828054600181600116156101000203166002900480156119745780601f1061194957610100808354040283529160200191611974565b820191906000526020600020905b81548152906001019060200180831161195757829003601f168201915b505050505081526020016002820160009054906101000a900473ffffffffffffffffffffffffffffffffffffffff1673ffffffffffffffffffffffffffffffffffffffff1673ffffffffffffffffffffffffffffffffffffffff16815260200160038201548152602001600482015481526020016005820154815250509050806020015181604001518260a00151829250935093509350509250925092565b60e06040519081016040528060008152602001600073ffffffffffffffffffffffffffffffffffffffff168152602001606081526020016060815260200160008152602001600081526020016000151581525090565b828054600181600116156101000203166002900490600052602060002090601f016020900481019282601f10611aaa57805160ff1916838001178555611ad8565b82800160010185558215611ad8579182015b82811115611ad7578251825591602001919060010190611abc565b5b509050611ae59190611b36565b5090565b60c0604051908101604052806000815260200160608152602001600073ffffffffffffffffffffffffffffffffffffffff1681526020016000815260200160008152602001600081525090565b611b5891905b80821115611b54576000816000905550600101611b3c565b5090565b9056fea165627a7a723058201d2e9dd236d82c409bc5ee56d91770f76fce56cedc784149b34e6852aa31741a0029",
  "source": "pragma solidity ^0.5.0;\r\nimport \"./ForumToken.sol\";\r\nimport \"./ForumAccount.sol\";\r\n\r\ncontract Forum {\r\n    uint256 public discussionCount = 0;\r\n\r\n    //access ForumToken Contract\r\n    ForumToken FRTContract;\r\n    ForumAccount FRAContract;\r\n\r\n    struct discussion {\r\n        uint256 discussionId;\r\n        address creator;\r\n        string title;\r\n        string content;\r\n        uint256 reward;\r\n        uint256 timestamp;\r\n        bool completed;\r\n    }\r\n\r\n    struct answer {\r\n        uint256 answerId;\r\n        string content;\r\n        address answerer;\r\n        uint256 likes;\r\n        uint256 dislikes;\r\n        uint256 timestamp;\r\n    }\r\n\r\n    constructor(ForumToken FRTAddress, ForumAccount FRAAddress) public {\r\n        FRTContract = FRTAddress;\r\n        FRAContract = FRAAddress;\r\n    }\r\n\r\n    // record all discussions\r\n    mapping(uint256 => discussion) public discussions;\r\n    // record all answers for each discussion, e.g: answers[_discussionId] returns a list of answers for the discussion\r\n    mapping(uint256 => answer[]) public answers;\r\n\r\n    event DiscussionCreated(\r\n        address creator,\r\n        uint256 discussionId,\r\n        string title,\r\n        uint256 reward,\r\n        bool completed\r\n    );\r\n\r\n    event DiscussionCompleted(\r\n        uint256 id,\r\n        bool completed\r\n    );\r\n\r\n    event AnswerCreated(\r\n        uint256 answerId,\r\n        string content,\r\n        address answerer\r\n    );\r\n\r\n    //modifier to ensure a function is callable only by the discussion creator \r\n    modifier creatorOnly(uint256 _discussionId) {\r\n        require(discussions[_discussionId].creator == msg.sender, \"Only poster can do this.\");\r\n        _;\r\n    }\r\n\r\n    // create a discussion with title, content and reward\r\n    function createDiscussion(string memory _title, string memory _content, uint256 _reward) public {\r\n        discussion memory newDiscussion = discussion(\r\n            discussionCount,\r\n            msg.sender,\r\n            _title,\r\n            _content,\r\n            _reward,\r\n            block.timestamp,\r\n            false\r\n        );\r\n        discussions[discussionCount] = newDiscussion;\r\n\r\n        // transfer reward from question creator to this contract\r\n        FRTContract.transferFrom(msg.sender, address(this), _reward);\r\n\r\n        emit DiscussionCreated(msg.sender, discussionCount, _title, _reward, false);\r\n        discussionCount++;\r\n    }\r\n\r\n\r\n    // for creator only: mark a discussion as completed\r\n    function discussionCompleted(uint256 _discussionId, uint256 _answerId) public creatorOnly(_discussionId) {\r\n        // reward the best answerer with forum token\r\n        address recipient = getAnswerer(_discussionId, _answerId);\r\n        FRTContract.transferFrom(address(this), recipient, discussions[_discussionId].reward);\r\n\r\n        // mark the discussion as completed\r\n        discussions[_discussionId].completed = true;\r\n        emit DiscussionCompleted(_discussionId, discussions[_discussionId].completed);\r\n    }\r\n\r\n    // for answerer: answer the question\r\n    function postAnswer(uint256 _discussionId, string memory _answer) public {\r\n        // check if the discussion is completed\r\n        require(discussions[_discussionId].completed == false, \"the discussion is completed.\");\r\n\r\n        // post answer\r\n        uint256 _answerId = answers[_discussionId].length;\r\n        require(discussions[_discussionId].completed == true, \"break test\");\r\n        answer memory new_answer = answer(_answerId, _answer, msg.sender, 0, 0, block.timestamp);\r\n        answers[_discussionId][_answerId] = new_answer;\r\n        emit AnswerCreated(_answerId, _answer, msg.sender);\r\n\r\n        // give 2 and 5 reputation points to question poster and answer poster respectively\r\n        FRAContract.addReputationPoints(msg.sender, 5);\r\n        address _accountAddress = discussions[_discussionId].creator;\r\n        FRAContract.addReputationPoints(_accountAddress, 2);\r\n    }\r\n\r\n    // get the answerer\r\n    function getAnswerer(uint256 _discussionId, uint256 _answerId) public view returns (address) {\r\n        return answers[_discussionId][_answerId].answerer;\r\n    }\r\n\r\n    // for all: check the answer post given answer id\r\n    function checkAnswer(uint256 _discussionId, uint256 _answerId) public view returns (string memory, address, uint256) {\r\n        answer memory _answer = answers[_discussionId][_answerId];\r\n        return (_answer.content, _answer.answerer, _answer.timestamp);\r\n    }\r\n\r\n    // for all: like the answer\r\n    function likeAnswer(uint256 _discussionId, uint256 _answerId) public {\r\n        answers[_discussionId][_answerId].likes += 1;\r\n\r\n        // add 1 reputation point to the answerer if likes are more than dislikes\r\n        if (answers[_discussionId][_answerId].likes > answers[_discussionId][_answerId].dislikes) {\r\n            address _accountAddress = answers[_discussionId][_answerId].answerer;\r\n            FRAContract.addReputationPoints(_accountAddress, 1);\r\n        }\r\n    } \r\n\r\n    // for all: dislike the answer\r\n    function dislikeAnswer(uint256 _discussionId, uint256 _answerId) public {\r\n        answers[_discussionId][_answerId].dislikes += 1;\r\n    } \r\n}",
  "sourcePath": "D:\\FT5004 project\\contracts\\Forum.sol",
  "compiler": {
    "name": "solc",
    "version": "0.5.0+commit.1d4f565a.Emscripten.clang"
  },
  "schemaVersion": "3.4.13",
  "updatedAt": "2023-04-18T07:18:21.359Z",
  "networkType": "ethereum",
  "devdoc": {
    "methods": {}
  },
  "userdoc": {
    "methods": {}
  }
}