{
  "contractName": "ForumToken",
  "abi": [
    {
      "constant": true,
      "inputs": [],
      "name": "name",
      "outputs": [
        {
          "name": "",
          "type": "string"
        }
      ],
      "payable": false,
      "stateMutability": "view",
      "type": "function"
    },
    {
      "constant": true,
      "inputs": [],
      "name": "totalSupply",
      "outputs": [
        {
          "name": "",
          "type": "uint256"
        }
      ],
      "payable": false,
      "stateMutability": "view",
      "type": "function"
    },
    {
      "constant": true,
      "inputs": [],
      "name": "decimals",
      "outputs": [
        {
          "name": "",
          "type": "uint8"
        }
      ],
      "payable": false,
      "stateMutability": "view",
      "type": "function"
    },
    {
      "constant": true,
      "inputs": [],
      "name": "symbol",
      "outputs": [
        {
          "name": "",
          "type": "string"
        }
      ],
      "payable": false,
      "stateMutability": "view",
      "type": "function"
    },
    {
      "inputs": [],
      "payable": false,
      "stateMutability": "nonpayable",
      "type": "constructor"
    },
    {
      "anonymous": false,
      "inputs": [
        {
          "indexed": true,
          "name": "from",
          "type": "address"
        },
        {
          "indexed": true,
          "name": "to",
          "type": "address"
        },
        {
          "indexed": false,
          "name": "value",
          "type": "uint256"
        }
      ],
      "name": "Transfer",
      "type": "event"
    },
    {
      "anonymous": false,
      "inputs": [
        {
          "indexed": true,
          "name": "owner",
          "type": "address"
        },
        {
          "indexed": true,
          "name": "spender",
          "type": "address"
        },
        {
          "indexed": false,
          "name": "value",
          "type": "uint256"
        }
      ],
      "name": "Approval",
      "type": "event"
    },
    {
      "constant": false,
      "inputs": [
        {
          "name": "_amount",
          "type": "uint256"
        }
      ],
      "name": "topUp",
      "outputs": [
        {
          "name": "",
          "type": "bool"
        }
      ],
      "payable": true,
      "stateMutability": "payable",
      "type": "function"
    },
    {
      "constant": false,
      "inputs": [
        {
          "name": "_amount",
          "type": "uint256"
        }
      ],
      "name": "withdraw",
      "outputs": [
        {
          "name": "",
          "type": "bool"
        }
      ],
      "payable": true,
      "stateMutability": "payable",
      "type": "function"
    },
    {
      "constant": true,
      "inputs": [
        {
          "name": "owner",
          "type": "address"
        }
      ],
      "name": "balanceOf",
      "outputs": [
        {
          "name": "",
          "type": "uint256"
        }
      ],
      "payable": false,
      "stateMutability": "view",
      "type": "function"
    },
    {
      "constant": false,
      "inputs": [
        {
          "name": "to",
          "type": "address"
        },
        {
          "name": "value",
          "type": "uint256"
        }
      ],
      "name": "transfer",
      "outputs": [
        {
          "name": "",
          "type": "bool"
        }
      ],
      "payable": false,
      "stateMutability": "nonpayable",
      "type": "function"
    },
    {
      "constant": false,
      "inputs": [
        {
          "name": "from",
          "type": "address"
        },
        {
          "name": "to",
          "type": "address"
        },
        {
          "name": "value",
          "type": "uint256"
        }
      ],
      "name": "transferFrom",
      "outputs": [
        {
          "name": "",
          "type": "bool"
        }
      ],
      "payable": false,
      "stateMutability": "nonpayable",
      "type": "function"
    }
  ],
  "bytecode": "0x6080604052620f424060005534801561001757600080fd5b50600054600260003373ffffffffffffffffffffffffffffffffffffffff1673ffffffffffffffffffffffffffffffffffffffff1681526020019081526020016000208190555033600160006101000a81548173ffffffffffffffffffffffffffffffffffffffff021916908373ffffffffffffffffffffffffffffffffffffffff160217905550610c73806100ae6000396000f3fe608060405260043610610099576000357c0100000000000000000000000000000000000000000000000000000000900463ffffffff16806306fdde031461009e57806318160ddd1461012e57806323b872dd146101595780632e1a7d4d146101ec578063313ce5671461023257806350017f3e1461026357806370a08231146102a957806395d89b411461030e578063a9059cbb1461039e575b600080fd5b3480156100aa57600080fd5b506100b3610411565b6040518080602001828103825283818151815260200191508051906020019080838360005b838110156100f35780820151818401526020810190506100d8565b50505050905090810190601f1680156101205780820380516001836020036101000a031916815260200191505b509250505060405180910390f35b34801561013a57600080fd5b5061014361044a565b6040518082815260200191505060405180910390f35b34801561016557600080fd5b506101d26004803603606081101561017c57600080fd5b81019080803573ffffffffffffffffffffffffffffffffffffffff169060200190929190803573ffffffffffffffffffffffffffffffffffffffff16906020019092919080359060200190929190505050610450565b604051808215151515815260200191505060405180910390f35b6102186004803603602081101561020257600080fd5b81019080803590602001909291905050506106b8565b604051808215151515815260200191505060405180910390f35b34801561023e57600080fd5b50610247610756565b604051808260ff1660ff16815260200191505060405180910390f35b61028f6004803603602081101561027957600080fd5b810190808035906020019092919050505061075b565b604051808215151515815260200191505060405180910390f35b3480156102b557600080fd5b506102f8600480360360208110156102cc57600080fd5b81019080803573ffffffffffffffffffffffffffffffffffffffff16906020019092919050505061095e565b6040518082815260200191505060405180910390f35b34801561031a57600080fd5b506103236109a7565b6040518080602001828103825283818151815260200191508051906020019080838360005b83811015610363578082015181840152602081019050610348565b50505050905090810190601f1680156103905780820380516001836020036101000a031916815260200191505b509250505060405180910390f35b3480156103aa57600080fd5b506103f7600480360360408110156103c157600080fd5b81019080803573ffffffffffffffffffffffffffffffffffffffff169060200190929190803590602001909291905050506109e0565b604051808215151515815260200191505060405180910390f35b6040805190810160405280600a81526020017f466f72756d546f6b656e0000000000000000000000000000000000000000000081525081565b60005481565b6000600260008573ffffffffffffffffffffffffffffffffffffffff1673ffffffffffffffffffffffffffffffffffffffff168152602001908152602001600020548211151515610509576040517f08c379a00000000000000000000000000000000000000000000000000000000081526004018080602001828103825260148152602001807f496e73756666696369656e742062616c616e636500000000000000000000000081525060200191505060405180910390fd5b600073ffffffffffffffffffffffffffffffffffffffff168373ffffffffffffffffffffffffffffffffffffffff16141515156105ae576040517f08c379a00000000000000000000000000000000000000000000000000000000081526004018080602001828103825260198152602001807f496e76616c696420726563697069656e7420616464726573730000000000000081525060200191505060405180910390fd5b81600260008673ffffffffffffffffffffffffffffffffffffffff1673ffffffffffffffffffffffffffffffffffffffff1681526020019081526020016000206000828254039250508190555081600260008573ffffffffffffffffffffffffffffffffffffffff1673ffffffffffffffffffffffffffffffffffffffff168152602001908152602001600020600082825401925050819055508273ffffffffffffffffffffffffffffffffffffffff168473ffffffffffffffffffffffffffffffffffffffff167fddf252ad1be2c89b69c2b068fc378daa952ba7f163c4a11628f55a4df523b3ef846040518082815260200191505060405180910390a3600190509392505050565b60006106e733600160009054906101000a900473ffffffffffffffffffffffffffffffffffffffff1684610450565b5060003390508073ffffffffffffffffffffffffffffffffffffffff166108fc606460636127108781151561071857fe5b040281151561072357fe5b049081150290604051600060405180830381858888f1935050505015801561074f573d6000803e3d6000fd5b5050919050565b601281565b6000662386f26fc10000820234111515610803576040517f08c379a00000000000000000000000000000000000000000000000000000000081526004018080602001828103825260238152602001807f496e73756666696369656e742066756e6420746f2062757920466f72756d546f81526020017f6b656e000000000000000000000000000000000000000000000000000000000081525060400191505060405180910390fd5b61082e600160009054906101000a900473ffffffffffffffffffffffffffffffffffffffff1661095e565b82111515156108a5576040517f08c379a00000000000000000000000000000000000000000000000000000000081526004018080602001828103825260188152602001807f46525420737570706c79206973206e6f7420656e6f756768000000000000000081525060200191505060405180910390fd5b6000600160009054906101000a900473ffffffffffffffffffffffffffffffffffffffff1690506000612710848115156108db57fe5b0490508173ffffffffffffffffffffffffffffffffffffffff166108fc829081150290604051600060405180830381858888f19350505050158015610924573d6000803e3d6000fd5b50610952600160009054906101000a900473ffffffffffffffffffffffffffffffffffffffff163386610450565b50600192505050919050565b6000600260008373ffffffffffffffffffffffffffffffffffffffff1673ffffffffffffffffffffffffffffffffffffffff168152602001908152602001600020549050919050565b6040805190810160405280600381526020017f465254000000000000000000000000000000000000000000000000000000000081525081565b6000600260003373ffffffffffffffffffffffffffffffffffffffff1673ffffffffffffffffffffffffffffffffffffffff168152602001908152602001600020548211151515610a99576040517f08c379a00000000000000000000000000000000000000000000000000000000081526004018080602001828103825260148152602001807f496e73756666696369656e742062616c616e636500000000000000000000000081525060200191505060405180910390fd5b600073ffffffffffffffffffffffffffffffffffffffff168373ffffffffffffffffffffffffffffffffffffffff1614151515610b3e576040517f08c379a00000000000000000000000000000000000000000000000000000000081526004018080602001828103825260198152602001807f496e76616c696420726563697069656e7420616464726573730000000000000081525060200191505060405180910390fd5b81600260003373ffffffffffffffffffffffffffffffffffffffff1673ffffffffffffffffffffffffffffffffffffffff1681526020019081526020016000206000828254039250508190555081600260008573ffffffffffffffffffffffffffffffffffffffff1673ffffffffffffffffffffffffffffffffffffffff168152602001908152602001600020600082825401925050819055508273ffffffffffffffffffffffffffffffffffffffff163373ffffffffffffffffffffffffffffffffffffffff167fddf252ad1be2c89b69c2b068fc378daa952ba7f163c4a11628f55a4df523b3ef846040518082815260200191505060405180910390a3600190509291505056fea165627a7a723058206c6f66964d570dea034373b21593d2c6b8b2e7e152ff76ce84520a39667b8b880029",
  "source": "pragma solidity ^0.5.0;\n\ncontract ForumToken {\n    // 1 forum token = 10^-4 ether\n    string public constant name = \"ForumToken\";\n    string public constant symbol = \"FRT\";\n    uint8 public constant decimals = 18;\n    uint256 public totalSupply = 1000000;\n    address contractAddress;\n    \n    mapping(address => uint256) balances;\n    \n    event Transfer(address indexed from, address indexed to, uint256 value);\n    event Approval(address indexed owner, address indexed spender, uint256 value);\n    \n    constructor() public {\n        balances[msg.sender] = totalSupply;\n        contractAddress = msg.sender;\n    }\n    \n\n    //top up function\n    function topUp(uint256 _amount) public payable returns (bool) {\n        // check whether user has enough money to buy the required amount\n        require(msg.value > _amount*0.01 ether, \"Insufficient fund to buy ForumToken\"); \n\n        // check whether supply is enough for top up\n        require(_amount <= balanceOf(contractAddress), \"FRT supply is not enough\");\n\n        // deduct money from user\n        address payable recipient = address(uint160(contractAddress));\n        uint256 total_payable = _amount / 10000;\n        recipient.transfer(total_payable);\n\n        // top up forum token for user\n        transferFrom(contractAddress, msg.sender, _amount);\n        return true;\n    }\n\n    //withdraw function\n    function withdraw(uint256 _amount) public payable returns (bool) {\n        // transfer forum tokens back to the contract\n        transferFrom(msg.sender, contractAddress, _amount);\n\n        // pay ether to user \n        address payable recipient = address(uint160(msg.sender));\n        recipient.transfer(_amount / 10000 * 99 / 100);\n    }\n\n    function balanceOf(address owner) public view returns (uint256) {\n        return balances[owner];\n    }\n    \n    function transfer(address to, uint256 value) public returns (bool) {\n        require(value <= balances[msg.sender], \"Insufficient balance\");\n        require(to != address(0), \"Invalid recipient address\");\n        \n        balances[msg.sender] -= value;\n        balances[to] += value;\n        \n        emit Transfer(msg.sender, to, value);\n        return true;\n    }\n    \n    function transferFrom(address from, address to, uint256 value) public returns (bool) {\n        require(value <= balances[from], \"Insufficient balance\");\n        require(to != address(0), \"Invalid recipient address\");\n        \n        balances[from] -= value;\n        balances[to] += value;\n        \n        emit Transfer(from, to, value);\n        return true;\n    }\n    \n\n    \n}\n",
  "sourcePath": "D:\\FT5004 project\\contracts\\ForumToken.sol",
  "compiler": {
    "name": "solc",
    "version": "0.5.0+commit.1d4f565a.Emscripten.clang"
  },
  "schemaVersion": "3.4.13",
  "updatedAt": "2023-04-18T07:18:21.369Z",
  "networkType": "ethereum",
  "devdoc": {
    "methods": {}
  },
  "userdoc": {
    "methods": {}
  }
}